{
  "_format": "hh-sol-artifact-1",
  "contractName": "NFTicket",
  "sourceName": "contracts/NFTicket.sol",
  "abi": [
    {
      "inputs": [],
      "stateMutability": "nonpayable",
      "type": "constructor"
    },
    {
      "inputs": [
        {
          "internalType": "address",
          "name": "sender",
          "type": "address"
        },
        {
          "internalType": "uint256",
          "name": "tokenId",
          "type": "uint256"
        },
        {
          "internalType": "address",
          "name": "owner",
          "type": "address"
        }
      ],
      "name": "ERC721IncorrectOwner",
      "type": "error"
    },
    {
      "inputs": [
        {
          "internalType": "address",
          "name": "operator",
          "type": "address"
        },
        {
          "internalType": "uint256",
          "name": "tokenId",
          "type": "uint256"
        }
      ],
      "name": "ERC721InsufficientApproval",
      "type": "error"
    },
    {
      "inputs": [
        {
          "internalType": "address",
          "name": "approver",
          "type": "address"
        }
      ],
      "name": "ERC721InvalidApprover",
      "type": "error"
    },
    {
      "inputs": [
        {
          "internalType": "address",
          "name": "operator",
          "type": "address"
        }
      ],
      "name": "ERC721InvalidOperator",
      "type": "error"
    },
    {
      "inputs": [
        {
          "internalType": "address",
          "name": "owner",
          "type": "address"
        }
      ],
      "name": "ERC721InvalidOwner",
      "type": "error"
    },
    {
      "inputs": [
        {
          "internalType": "address",
          "name": "receiver",
          "type": "address"
        }
      ],
      "name": "ERC721InvalidReceiver",
      "type": "error"
    },
    {
      "inputs": [
        {
          "internalType": "address",
          "name": "sender",
          "type": "address"
        }
      ],
      "name": "ERC721InvalidSender",
      "type": "error"
    },
    {
      "inputs": [
        {
          "internalType": "uint256",
          "name": "tokenId",
          "type": "uint256"
        }
      ],
      "name": "ERC721NonexistentToken",
      "type": "error"
    },
    {
      "inputs": [
        {
          "internalType": "address",
          "name": "owner",
          "type": "address"
        }
      ],
      "name": "OwnableInvalidOwner",
      "type": "error"
    },
    {
      "inputs": [
        {
          "internalType": "address",
          "name": "account",
          "type": "address"
        }
      ],
      "name": "OwnableUnauthorizedAccount",
      "type": "error"
    },
    {
      "inputs": [],
      "name": "ReentrancyGuardReentrantCall",
      "type": "error"
    },
    {
      "anonymous": false,
      "inputs": [
        {
          "indexed": true,
          "internalType": "address",
          "name": "owner",
          "type": "address"
        },
        {
          "indexed": true,
          "internalType": "address",
          "name": "approved",
          "type": "address"
        },
        {
          "indexed": true,
          "internalType": "uint256",
          "name": "tokenId",
          "type": "uint256"
        }
      ],
      "name": "Approval",
      "type": "event"
    },
    {
      "anonymous": false,
      "inputs": [
        {
          "indexed": true,
          "internalType": "address",
          "name": "owner",
          "type": "address"
        },
        {
          "indexed": true,
          "internalType": "address",
          "name": "operator",
          "type": "address"
        },
        {
          "indexed": false,
          "internalType": "bool",
          "name": "approved",
          "type": "bool"
        }
      ],
      "name": "ApprovalForAll",
      "type": "event"
    },
    {
      "anonymous": false,
      "inputs": [
        {
          "indexed": true,
          "internalType": "uint256",
          "name": "eventId",
          "type": "uint256"
        },
        {
          "indexed": false,
          "internalType": "string",
          "name": "name",
          "type": "string"
        },
        {
          "indexed": false,
          "internalType": "uint256",
          "name": "startTime",
          "type": "uint256"
        },
        {
          "indexed": false,
          "internalType": "uint256",
          "name": "endTime",
          "type": "uint256"
        },
        {
          "indexed": false,
          "internalType": "uint256",
          "name": "priceWei",
          "type": "uint256"
        },
        {
          "indexed": false,
          "internalType": "uint256",
          "name": "maxSupply",
          "type": "uint256"
        },
        {
          "indexed": false,
          "internalType": "address",
          "name": "signer",
          "type": "address"
        }
      ],
      "name": "EventCreated",
      "type": "event"
    },
    {
      "anonymous": false,
      "inputs": [
        {
          "indexed": true,
          "internalType": "uint256",
          "name": "eventId",
          "type": "uint256"
        },
        {
          "indexed": false,
          "internalType": "string",
          "name": "name",
          "type": "string"
        },
        {
          "indexed": false,
          "internalType": "uint256",
          "name": "startTime",
          "type": "uint256"
        },
        {
          "indexed": false,
          "internalType": "uint256",
          "name": "endTime",
          "type": "uint256"
        },
        {
          "indexed": false,
          "internalType": "uint256",
          "name": "priceWei",
          "type": "uint256"
        },
        {
          "indexed": false,
          "internalType": "uint256",
          "name": "maxSupply",
          "type": "uint256"
        },
        {
          "indexed": false,
          "internalType": "address",
          "name": "signer",
          "type": "address"
        }
      ],
      "name": "EventUpdated",
      "type": "event"
    },
    {
      "anonymous": false,
      "inputs": [
        {
          "indexed": true,
          "internalType": "address",
          "name": "account",
          "type": "address"
        }
      ],
      "name": "OrganizerAdded",
      "type": "event"
    },
    {
      "anonymous": false,
      "inputs": [
        {
          "indexed": true,
          "internalType": "address",
          "name": "account",
          "type": "address"
        }
      ],
      "name": "OrganizerRemoved",
      "type": "event"
    },
    {
      "anonymous": false,
      "inputs": [
        {
          "indexed": true,
          "internalType": "address",
          "name": "previousOwner",
          "type": "address"
        },
        {
          "indexed": true,
          "internalType": "address",
          "name": "newOwner",
          "type": "address"
        }
      ],
      "name": "OwnershipTransferred",
      "type": "event"
    },
    {
      "anonymous": false,
      "inputs": [
        {
          "indexed": true,
          "internalType": "address",
          "name": "previousSigner",
          "type": "address"
        },
        {
          "indexed": true,
          "internalType": "address",
          "name": "newSigner",
          "type": "address"
        }
      ],
      "name": "SignerUpdated",
      "type": "event"
    },
    {
      "anonymous": false,
      "inputs": [
        {
          "indexed": true,
          "internalType": "uint256",
          "name": "tokenId",
          "type": "uint256"
        },
        {
          "indexed": true,
          "internalType": "uint256",
          "name": "eventId",
          "type": "uint256"
        },
        {
          "indexed": true,
          "internalType": "address",
          "name": "to",
          "type": "address"
        },
        {
          "indexed": false,
          "internalType": "uint256",
          "name": "priceWei",
          "type": "uint256"
        }
      ],
      "name": "TicketMinted",
      "type": "event"
    },
    {
      "anonymous": false,
      "inputs": [
        {
          "indexed": true,
          "internalType": "address",
          "name": "from",
          "type": "address"
        },
        {
          "indexed": true,
          "internalType": "address",
          "name": "to",
          "type": "address"
        },
        {
          "indexed": true,
          "internalType": "uint256",
          "name": "tokenId",
          "type": "uint256"
        }
      ],
      "name": "Transfer",
      "type": "event"
    },
    {
      "stateMutability": "payable",
      "type": "fallback"
    },
    {
      "inputs": [
        {
          "internalType": "address",
          "name": "account",
          "type": "address"
        }
      ],
      "name": "addOrganizer",
      "outputs": [],
      "stateMutability": "nonpayable",
      "type": "function"
    },
    {
      "inputs": [
        {
          "internalType": "address",
          "name": "to",
          "type": "address"
        },
        {
          "internalType": "uint256",
          "name": "tokenId",
          "type": "uint256"
        }
      ],
      "name": "approve",
      "outputs": [],
      "stateMutability": "nonpayable",
      "type": "function"
    },
    {
      "inputs": [
        {
          "internalType": "address",
          "name": "owner",
          "type": "address"
        }
      ],
      "name": "balanceOf",
      "outputs": [
        {
          "internalType": "uint256",
          "name": "",
          "type": "uint256"
        }
      ],
      "stateMutability": "view",
      "type": "function"
    },
    {
      "inputs": [
        {
          "internalType": "uint256",
          "name": "eventId",
          "type": "uint256"
        }
      ],
      "name": "buyTicket",
      "outputs": [
        {
          "internalType": "uint256",
          "name": "tokenId",
          "type": "uint256"
        }
      ],
      "stateMutability": "payable",
      "type": "function"
    },
    {
      "inputs": [
        {
          "internalType": "string",
          "name": "name",
          "type": "string"
        },
        {
          "internalType": "uint256",
          "name": "startTime",
          "type": "uint256"
        },
        {
          "internalType": "uint256",
          "name": "endTime",
          "type": "uint256"
        },
        {
          "internalType": "string",
          "name": "preBaseURI",
          "type": "string"
        },
        {
          "internalType": "string",
          "name": "postBaseURI",
          "type": "string"
        },
        {
          "internalType": "uint256",
          "name": "ticketPriceWei",
          "type": "uint256"
        },
        {
          "internalType": "uint256",
          "name": "maxSupply",
          "type": "uint256"
        },
        {
          "internalType": "address",
          "name": "signerAddress",
          "type": "address"
        }
      ],
      "name": "createEvent",
      "outputs": [
        {
          "internalType": "uint256",
          "name": "eventId",
          "type": "uint256"
        }
      ],
      "stateMutability": "nonpayable",
      "type": "function"
    },
    {
      "inputs": [
        {
          "internalType": "uint256",
          "name": "",
          "type": "uint256"
        }
      ],
      "name": "events",
      "outputs": [
        {
          "internalType": "string",
          "name": "name",
          "type": "string"
        },
        {
          "internalType": "uint256",
          "name": "startTime",
          "type": "uint256"
        },
        {
          "internalType": "uint256",
          "name": "endTime",
          "type": "uint256"
        },
        {
          "internalType": "string",
          "name": "preBaseURI",
          "type": "string"
        },
        {
          "internalType": "string",
          "name": "postBaseURI",
          "type": "string"
        },
        {
          "internalType": "uint256",
          "name": "priceWei",
          "type": "uint256"
        },
        {
          "internalType": "uint256",
          "name": "maxSupply",
          "type": "uint256"
        },
        {
          "internalType": "uint256",
          "name": "minted",
          "type": "uint256"
        },
        {
          "internalType": "address",
          "name": "signer",
          "type": "address"
        },
        {
          "internalType": "bool",
          "name": "active",
          "type": "bool"
        }
      ],
      "stateMutability": "view",
      "type": "function"
    },
    {
      "inputs": [
        {
          "internalType": "uint256",
          "name": "tokenId",
          "type": "uint256"
        }
      ],
      "name": "getApproved",
      "outputs": [
        {
          "internalType": "address",
          "name": "",
          "type": "address"
        }
      ],
      "stateMutability": "view",
      "type": "function"
    },
    {
      "inputs": [
        {
          "internalType": "uint256",
          "name": "eventId",
          "type": "uint256"
        }
      ],
      "name": "getEvent",
      "outputs": [
        {
          "components": [
            {
              "internalType": "string",
              "name": "name",
              "type": "string"
            },
            {
              "internalType": "uint256",
              "name": "startTime",
              "type": "uint256"
            },
            {
              "internalType": "uint256",
              "name": "endTime",
              "type": "uint256"
            },
            {
              "internalType": "string",
              "name": "preBaseURI",
              "type": "string"
            },
            {
              "internalType": "string",
              "name": "postBaseURI",
              "type": "string"
            },
            {
              "internalType": "uint256",
              "name": "priceWei",
              "type": "uint256"
            },
            {
              "internalType": "uint256",
              "name": "maxSupply",
              "type": "uint256"
            },
            {
              "internalType": "uint256",
              "name": "minted",
              "type": "uint256"
            },
            {
              "internalType": "address",
              "name": "signer",
              "type": "address"
            },
            {
              "internalType": "bool",
              "name": "active",
              "type": "bool"
            }
          ],
          "internalType": "struct NFTicket.EventInfo",
          "name": "",
          "type": "tuple"
        }
      ],
      "stateMutability": "view",
      "type": "function"
    },
    {
      "inputs": [
        {
          "internalType": "address",
          "name": "user",
          "type": "address"
        }
      ],
      "name": "getMyTickets",
      "outputs": [
        {
          "internalType": "uint256[]",
          "name": "",
          "type": "uint256[]"
        }
      ],
      "stateMutability": "view",
      "type": "function"
    },
    {
      "inputs": [],
      "name": "globalSigner",
      "outputs": [
        {
          "internalType": "address",
          "name": "",
          "type": "address"
        }
      ],
      "stateMutability": "view",
      "type": "function"
    },
    {
      "inputs": [
        {
          "internalType": "address",
          "name": "owner",
          "type": "address"
        },
        {
          "internalType": "address",
          "name": "operator",
          "type": "address"
        }
      ],
      "name": "isApprovedForAll",
      "outputs": [
        {
          "internalType": "bool",
          "name": "",
          "type": "bool"
        }
      ],
      "stateMutability": "view",
      "type": "function"
    },
    {
      "inputs": [
        {
          "internalType": "address",
          "name": "account",
          "type": "address"
        }
      ],
      "name": "isOrganizer",
      "outputs": [
        {
          "internalType": "bool",
          "name": "",
          "type": "bool"
        }
      ],
      "stateMutability": "view",
      "type": "function"
    },
    {
      "inputs": [],
      "name": "name",
      "outputs": [
        {
          "internalType": "string",
          "name": "",
          "type": "string"
        }
      ],
      "stateMutability": "view",
      "type": "function"
    },
    {
      "inputs": [],
      "name": "nextEventId",
      "outputs": [
        {
          "internalType": "uint256",
          "name": "",
          "type": "uint256"
        }
      ],
      "stateMutability": "view",
      "type": "function"
    },
    {
      "inputs": [
        {
          "internalType": "address",
          "name": "to",
          "type": "address"
        },
        {
          "internalType": "uint256",
          "name": "eventId",
          "type": "uint256"
        }
      ],
      "name": "organizerMint",
      "outputs": [
        {
          "internalType": "uint256",
          "name": "tokenId",
          "type": "uint256"
        }
      ],
      "stateMutability": "nonpayable",
      "type": "function"
    },
    {
      "inputs": [
        {
          "internalType": "address",
          "name": "",
          "type": "address"
        }
      ],
      "name": "organizers",
      "outputs": [
        {
          "internalType": "bool",
          "name": "",
          "type": "bool"
        }
      ],
      "stateMutability": "view",
      "type": "function"
    },
    {
      "inputs": [],
      "name": "owner",
      "outputs": [
        {
          "internalType": "address",
          "name": "",
          "type": "address"
        }
      ],
      "stateMutability": "view",
      "type": "function"
    },
    {
      "inputs": [
        {
          "internalType": "uint256",
          "name": "tokenId",
          "type": "uint256"
        }
      ],
      "name": "ownerOf",
      "outputs": [
        {
          "internalType": "address",
          "name": "",
          "type": "address"
        }
      ],
      "stateMutability": "view",
      "type": "function"
    },
    {
      "inputs": [
        {
          "internalType": "address",
          "name": "account",
          "type": "address"
        }
      ],
      "name": "removeOrganizer",
      "outputs": [],
      "stateMutability": "nonpayable",
      "type": "function"
    },
    {
      "inputs": [],
      "name": "renounceOwnership",
      "outputs": [],
      "stateMutability": "nonpayable",
      "type": "function"
    },
    {
      "inputs": [
        {
          "internalType": "address",
          "name": "from",
          "type": "address"
        },
        {
          "internalType": "address",
          "name": "to",
          "type": "address"
        },
        {
          "internalType": "uint256",
          "name": "tokenId",
          "type": "uint256"
        }
      ],
      "name": "safeTransferFrom",
      "outputs": [],
      "stateMutability": "nonpayable",
      "type": "function"
    },
    {
      "inputs": [
        {
          "internalType": "address",
          "name": "from",
          "type": "address"
        },
        {
          "internalType": "address",
          "name": "to",
          "type": "address"
        },
        {
          "internalType": "uint256",
          "name": "tokenId",
          "type": "uint256"
        },
        {
          "internalType": "bytes",
          "name": "data",
          "type": "bytes"
        }
      ],
      "name": "safeTransferFrom",
      "outputs": [],
      "stateMutability": "nonpayable",
      "type": "function"
    },
    {
      "inputs": [
        {
          "internalType": "address",
          "name": "operator",
          "type": "address"
        },
        {
          "internalType": "bool",
          "name": "approved",
          "type": "bool"
        }
      ],
      "name": "setApprovalForAll",
      "outputs": [],
      "stateMutability": "nonpayable",
      "type": "function"
    },
    {
      "inputs": [
        {
          "internalType": "uint256",
          "name": "eventId",
          "type": "uint256"
        },
        {
          "internalType": "bool",
          "name": "active_",
          "type": "bool"
        }
      ],
      "name": "setEventActive",
      "outputs": [],
      "stateMutability": "nonpayable",
      "type": "function"
    },
    {
      "inputs": [
        {
          "internalType": "address",
          "name": "newSigner",
          "type": "address"
        }
      ],
      "name": "setSigner",
      "outputs": [],
      "stateMutability": "nonpayable",
      "type": "function"
    },
    {
      "inputs": [
        {
          "internalType": "bytes4",
          "name": "interfaceId",
          "type": "bytes4"
        }
      ],
      "name": "supportsInterface",
      "outputs": [
        {
          "internalType": "bool",
          "name": "",
          "type": "bool"
        }
      ],
      "stateMutability": "view",
      "type": "function"
    },
    {
      "inputs": [],
      "name": "symbol",
      "outputs": [
        {
          "internalType": "string",
          "name": "",
          "type": "string"
        }
      ],
      "stateMutability": "view",
      "type": "function"
    },
    {
      "inputs": [
        {
          "internalType": "uint256",
          "name": "",
          "type": "uint256"
        }
      ],
      "name": "tokenEvent",
      "outputs": [
        {
          "internalType": "uint256",
          "name": "",
          "type": "uint256"
        }
      ],
      "stateMutability": "view",
      "type": "function"
    },
    {
      "inputs": [
        {
          "internalType": "uint256",
          "name": "tokenId",
          "type": "uint256"
        }
      ],
      "name": "tokenURI",
      "outputs": [
        {
          "internalType": "string",
          "name": "",
          "type": "string"
        }
      ],
      "stateMutability": "view",
      "type": "function"
    },
    {
      "inputs": [
        {
          "internalType": "address",
          "name": "owner_",
          "type": "address"
        }
      ],
      "name": "tokensOfOwner",
      "outputs": [
        {
          "internalType": "uint256[]",
          "name": "",
          "type": "uint256[]"
        }
      ],
      "stateMutability": "view",
      "type": "function"
    },
    {
      "inputs": [],
      "name": "totalEvents",
      "outputs": [
        {
          "internalType": "uint256",
          "name": "",
          "type": "uint256"
        }
      ],
      "stateMutability": "view",
      "type": "function"
    },
    {
      "inputs": [
        {
          "internalType": "address",
          "name": "from",
          "type": "address"
        },
        {
          "internalType": "address",
          "name": "to",
          "type": "address"
        },
        {
          "internalType": "uint256",
          "name": "tokenId",
          "type": "uint256"
        }
      ],
      "name": "transferFrom",
      "outputs": [],
      "stateMutability": "nonpayable",
      "type": "function"
    },
    {
      "inputs": [
        {
          "internalType": "address",
          "name": "newOwner",
          "type": "address"
        }
      ],
      "name": "transferOwnership",
      "outputs": [],
      "stateMutability": "nonpayable",
      "type": "function"
    },
    {
      "inputs": [
        {
          "internalType": "uint256",
          "name": "eventId",
          "type": "uint256"
        },
        {
          "internalType": "string",
          "name": "name",
          "type": "string"
        },
        {
          "internalType": "uint256",
          "name": "startTime",
          "type": "uint256"
        },
        {
          "internalType": "uint256",
          "name": "endTime",
          "type": "uint256"
        },
        {
          "internalType": "string",
          "name": "preBaseURI",
          "type": "string"
        },
        {
          "internalType": "string",
          "name": "postBaseURI",
          "type": "string"
        },
        {
          "internalType": "uint256",
          "name": "ticketPriceWei",
          "type": "uint256"
        },
        {
          "internalType": "uint256",
          "name": "maxSupply",
          "type": "uint256"
        },
        {
          "internalType": "address",
          "name": "signerAddress",
          "type": "address"
        }
      ],
      "name": "updateEvent",
      "outputs": [],
      "stateMutability": "nonpayable",
      "type": "function"
    },
    {
      "inputs": [
        {
          "internalType": "address payable",
          "name": "to",
          "type": "address"
        }
      ],
      "name": "withdraw",
      "outputs": [],
      "stateMutability": "nonpayable",
      "type": "function"
    },
    {
      "stateMutability": "payable",
      "type": "receive"
    }
  ],
  "bytecode": "0x60806040523480156200001157600080fd5b50336040518060400160405280600881526020017f4e465469636b65740000000000000000000000000000000000000000000000008152506040518060400160405280600481526020017f4e544958000000000000000000000000000000000000000000000000000000008152508160009081620000909190620004d2565b508060019081620000a29190620004d2565b505050600073ffffffffffffffffffffffffffffffffffffffff168173ffffffffffffffffffffffffffffffffffffffff16036200011a5760006040517f1e4fbdf7000000000000000000000000000000000000000000000000000000008152600401620001119190620005fe565b60405180910390fd5b6200012b816200019260201b60201c565b5060016007819055506001600860003373ffffffffffffffffffffffffffffffffffffffff1673ffffffffffffffffffffffffffffffffffffffff16815260200190815260200160002060006101000a81548160ff0219169083151502179055506200061b565b6000600660009054906101000a900473ffffffffffffffffffffffffffffffffffffffff16905081600660006101000a81548173ffffffffffffffffffffffffffffffffffffffff021916908373ffffffffffffffffffffffffffffffffffffffff1602179055508173ffffffffffffffffffffffffffffffffffffffff168173ffffffffffffffffffffffffffffffffffffffff167f8be0079c531659141344cd1fd0a4f28419497f9722a3daafe3b4186f6b6457e060405160405180910390a35050565b600081519050919050565b7f4e487b7100000000000000000000000000000000000000000000000000000000600052604160045260246000fd5b7f4e487b7100000000000000000000000000000000000000000000000000000000600052602260045260246000fd5b60006002820490506001821680620002da57607f821691505b602082108103620002f057620002ef62000292565b5b50919050565b60008190508160005260206000209050919050565b60006020601f8301049050919050565b600082821b905092915050565b6000600883026200035a7fffffffffffffffffffffffffffffffffffffffffffffffffffffffffffffffff826200031b565b6200036686836200031b565b95508019841693508086168417925050509392505050565b6000819050919050565b6000819050919050565b6000620003b3620003ad620003a7846200037e565b62000388565b6200037e565b9050919050565b6000819050919050565b620003cf8362000392565b620003e7620003de82620003ba565b84845462000328565b825550505050565b600090565b620003fe620003ef565b6200040b818484620003c4565b505050565b5b81811015620004335762000427600082620003f4565b60018101905062000411565b5050565b601f82111562000482576200044c81620002f6565b62000457846200030b565b8101602085101562000467578190505b6200047f62000476856200030b565b83018262000410565b50505b505050565b600082821c905092915050565b6000620004a76000198460080262000487565b1980831691505092915050565b6000620004c2838362000494565b9150826002028217905092915050565b620004dd8262000258565b67ffffffffffffffff811115620004f957620004f862000263565b5b620005058254620002c1565b6200051282828562000437565b600060209050601f8311600181146200054a576000841562000535578287015190505b620005418582620004b4565b865550620005b1565b601f1984166200055a86620002f6565b60005b8281101562000584578489015182556001820191506020850194506020810190506200055d565b86831015620005a45784890151620005a0601f89168262000494565b8355505b6001600288020188555050505b505050505050565b600073ffffffffffffffffffffffffffffffffffffffff82169050919050565b6000620005e682620005b9565b9050919050565b620005f881620005d9565b82525050565b6000602082019050620006156000830184620005ed565b92915050565b615087806200062b6000396000f3fe6080604052600436106102085760003560e01c806370a0823111610118578063ba870686116100a0578063e30c5eb71161006f578063e30c5eb7146107ed578063e4725f021461082a578063e985e9c514610853578063f2fde38b14610890578063fabe5a14146108b95761020f565b8063ba8706861461071f578063c72ac3491461074a578063c87b56dd14610773578063cbe7bd10146107b05761020f565b80638da5cb5b116100e75780638da5cb5b1461064c57806395d89b41146106775780639f9d903a146106a2578063a22cb465146106cd578063b88d4fde146106f65761020f565b806370a082311461057e578063715018a6146105bb5780638462151c146105d25780638aaf26861461060f5761020f565b806341676f151161019b57806351cff8d91161016a57806351cff8d9146104825780636352211e146104ab57806367dd74ca146104e85780636c19e783146105185780636d1884e0146105415761020f565b806341676f15146103c857806342842e0e1461040557806344ade56d1461042e5780634e321975146104575761020f565b8063095ea7b3116101d7578063095ea7b3146102f35780630b7914301461031c578063127a52981461036257806323b872dd1461039f5761020f565b806301ffc9a7146102115780630544c5b91461024e57806306fdde031461028b578063081812fc146102b65761020f565b3661020f57005b005b34801561021d57600080fd5b506102386004803603810190610233919061377f565b6108e2565b60405161024591906137c7565b60405180910390f35b34801561025a57600080fd5b5061027560048036038101906102709190613840565b6109c4565b60405161028291906137c7565b60405180910390f35b34801561029757600080fd5b506102a06109e4565b6040516102ad91906138fd565b60405180910390f35b3480156102c257600080fd5b506102dd60048036038101906102d89190613955565b610a76565b6040516102ea9190613991565b60405180910390f35b3480156102ff57600080fd5b5061031a600480360381019061031591906139ac565b610a92565b005b34801561032857600080fd5b50610343600480360381019061033e9190613955565b610aa8565b6040516103599a999897969594939291906139fb565b60405180910390f35b34801561036e57600080fd5b5061038960048036038101906103849190613955565b610cc1565b6040516103969190613aac565b60405180910390f35b3480156103ab57600080fd5b506103c660048036038101906103c19190613ac7565b610cd9565b005b3480156103d457600080fd5b506103ef60048036038101906103ea9190613840565b610ddb565b6040516103fc91906137c7565b60405180910390f35b34801561041157600080fd5b5061042c60048036038101906104279190613ac7565b610e6e565b005b34801561043a57600080fd5b5061045560048036038101906104509190613840565b610e8e565b005b34801561046357600080fd5b5061046c610fc0565b6040516104799190613991565b60405180910390f35b34801561048e57600080fd5b506104a960048036038101906104a49190613b58565b610fe6565b005b3480156104b757600080fd5b506104d260048036038101906104cd9190613955565b6110a7565b6040516104df9190613991565b60405180910390f35b61050260048036038101906104fd9190613955565b6110b9565b60405161050f9190613aac565b60405180910390f35b34801561052457600080fd5b5061053f600480360381019061053a9190613840565b6112e3565b005b34801561054d57600080fd5b5061056860048036038101906105639190613955565b6113ab565b6040516105759190613ce4565b60405180910390f35b34801561058a57600080fd5b506105a560048036038101906105a09190613840565b611632565b6040516105b29190613aac565b60405180910390f35b3480156105c757600080fd5b506105d06116ec565b005b3480156105de57600080fd5b506105f960048036038101906105f49190613840565b611700565b6040516106069190613db5565b60405180910390f35b34801561061b57600080fd5b5061063660048036038101906106319190613840565b611797565b6040516106439190613db5565b60405180910390f35b34801561065857600080fd5b5061066161182e565b60405161066e9190613991565b60405180910390f35b34801561068357600080fd5b5061068c611858565b60405161069991906138fd565b60405180910390f35b3480156106ae57600080fd5b506106b76118ea565b6040516106c49190613aac565b60405180910390f35b3480156106d957600080fd5b506106f460048036038101906106ef9190613e03565b6118f0565b005b34801561070257600080fd5b5061071d60048036038101906107189190613f78565b611906565b005b34801561072b57600080fd5b5061073461192b565b6040516107419190613aac565b60405180910390f35b34801561075657600080fd5b50610771600480360381019061076c919061409c565b611935565b005b34801561077f57600080fd5b5061079a60048036038101906107959190613955565b611be8565b6040516107a791906138fd565b60405180910390f35b3480156107bc57600080fd5b506107d760048036038101906107d291906141ba565b611d8a565b6040516107e49190613aac565b60405180910390f35b3480156107f957600080fd5b50610814600480360381019061080f91906139ac565b6120e6565b6040516108219190613aac565b60405180910390f35b34801561083657600080fd5b50610851600480360381019061084c9190613840565b6122d7565b005b34801561085f57600080fd5b5061087a600480360381019061087591906142c4565b612479565b60405161088791906137c7565b60405180910390f35b34801561089c57600080fd5b506108b760048036038101906108b29190613840565b61250d565b005b3480156108c557600080fd5b506108e060048036038101906108db9190614304565b612593565b005b60007f80ac58cd000000000000000000000000000000000000000000000000000000007bffffffffffffffffffffffffffffffffffffffffffffffffffffffff1916827bffffffffffffffffffffffffffffffffffffffffffffffffffffffff191614806109ad57507f5b5e139f000000000000000000000000000000000000000000000000000000007bffffffffffffffffffffffffffffffffffffffffffffffffffffffff1916827bffffffffffffffffffffffffffffffffffffffffffffffffffffffff1916145b806109bd57506109bc826126f5565b5b9050919050565b60086020528060005260406000206000915054906101000a900460ff1681565b6060600080546109f390614373565b80601f0160208091040260200160405190810160405280929190818152602001828054610a1f90614373565b8015610a6c5780601f10610a4157610100808354040283529160200191610a6c565b820191906000526020600020905b815481529060010190602001808311610a4f57829003601f168201915b5050505050905090565b6000610a818261275f565b50610a8b826127e7565b9050919050565b610aa48282610a9f612824565b61282c565b5050565b600a602052806000526040600020600091509050806000018054610acb90614373565b80601f0160208091040260200160405190810160405280929190818152602001828054610af790614373565b8015610b445780601f10610b1957610100808354040283529160200191610b44565b820191906000526020600020905b815481529060010190602001808311610b2757829003601f168201915b505050505090806001015490806002015490806003018054610b6590614373565b80601f0160208091040260200160405190810160405280929190818152602001828054610b9190614373565b8015610bde5780601f10610bb357610100808354040283529160200191610bde565b820191906000526020600020905b815481529060010190602001808311610bc157829003601f168201915b505050505090806004018054610bf390614373565b80601f0160208091040260200160405190810160405280929190818152602001828054610c1f90614373565b8015610c6c5780601f10610c4157610100808354040283529160200191610c6c565b820191906000526020600020905b815481529060010190602001808311610c4f57829003601f168201915b5050505050908060050154908060060154908060070154908060080160009054906101000a900473ffffffffffffffffffffffffffffffffffffffff16908060080160149054906101000a900460ff1690508a565b600c6020528060005260406000206000915090505481565b600073ffffffffffffffffffffffffffffffffffffffff168273ffffffffffffffffffffffffffffffffffffffff1603610d4b5760006040517f64a0ae92000000000000000000000000000000000000000000000000000000008152600401610d429190613991565b60405180910390fd5b6000610d5f8383610d5a612824565b61283e565b90508373ffffffffffffffffffffffffffffffffffffffff168173ffffffffffffffffffffffffffffffffffffffff1614610dd5578382826040517f64283d7b000000000000000000000000000000000000000000000000000000008152600401610dcc939291906143a4565b60405180910390fd5b50505050565b6000600860008373ffffffffffffffffffffffffffffffffffffffff1673ffffffffffffffffffffffffffffffffffffffff16815260200190815260200160002060009054906101000a900460ff1680610e675750610e3861182e565b73ffffffffffffffffffffffffffffffffffffffff168273ffffffffffffffffffffffffffffffffffffffff16145b9050919050565b610e8983838360405180602001604052806000815250611906565b505050565b610e96612a58565b600860008273ffffffffffffffffffffffffffffffffffffffff1673ffffffffffffffffffffffffffffffffffffffff16815260200190815260200160002060009054906101000a900460ff16610f22576040517f08c379a0000000000000000000000000000000000000000000000000000000008152600401610f1990614427565b60405180910390fd5b6000600860008373ffffffffffffffffffffffffffffffffffffffff1673ffffffffffffffffffffffffffffffffffffffff16815260200190815260200160002060006101000a81548160ff0219169083151502179055508073ffffffffffffffffffffffffffffffffffffffff167fc459bd414676a5877fcf10a0d73ecf7e1f672a339650b03e628c4046534300e360405160405180910390a250565b600960009054906101000a900473ffffffffffffffffffffffffffffffffffffffff1681565b610fee612a58565b600073ffffffffffffffffffffffffffffffffffffffff168173ffffffffffffffffffffffffffffffffffffffff160361105d576040517f08c379a000000000000000000000000000000000000000000000000000000000815260040161105490614493565b60405180910390fd5b8073ffffffffffffffffffffffffffffffffffffffff166108fc479081150290604051600060405180830381858888f193505050501580156110a3573d6000803e3d6000fd5b5050565b60006110b28261275f565b9050919050565b60006110c3612adf565b6000600a600084815260200190815260200160002090508060080160149054906101000a900460ff1661112b576040517f08c379a0000000000000000000000000000000000000000000000000000000008152600401611122906144ff565b60405180910390fd5b600081600001805461113c90614373565b90501161117e576040517f08c379a00000000000000000000000000000000000000000000000000000000081526004016111759061456b565b60405180910390fd5b80600601548160070154106111c8576040517f08c379a00000000000000000000000000000000000000000000000000000000081526004016111bf906145d7565b60405180910390fd5b8060050154341461120e576040517f08c379a000000000000000000000000000000000000000000000000000000000815260040161120590614643565b60405180910390fd5b61121f611219612824565b84612b25565b9150600061122b61182e565b73ffffffffffffffffffffffffffffffffffffffff163460405161124e90614694565b60006040518083038185875af1925050503d806000811461128b576040519150601f19603f3d011682016040523d82523d6000602084013e611290565b606091505b50509050806112d4576040517f08c379a00000000000000000000000000000000000000000000000000000000081526004016112cb906146f5565b60405180910390fd5b50506112de612c55565b919050565b6112eb612a58565b8073ffffffffffffffffffffffffffffffffffffffff16600960009054906101000a900473ffffffffffffffffffffffffffffffffffffffff1673ffffffffffffffffffffffffffffffffffffffff167f2d025324f0a785e8c12d0a0d91a9caa49df4ef20ff87e0df7213a1d4f3157beb60405160405180910390a380600960006101000a81548173ffffffffffffffffffffffffffffffffffffffff021916908373ffffffffffffffffffffffffffffffffffffffff16021790555050565b6113b36136a8565b600a6000838152602001908152602001600020604051806101400160405290816000820180546113e290614373565b80601f016020809104026020016040519081016040528092919081815260200182805461140e90614373565b801561145b5780601f106114305761010080835404028352916020019161145b565b820191906000526020600020905b81548152906001019060200180831161143e57829003601f168201915b50505050508152602001600182015481526020016002820154815260200160038201805461148890614373565b80601f01602080910402602001604051908101604052809291908181526020018280546114b490614373565b80156115015780601f106114d657610100808354040283529160200191611501565b820191906000526020600020905b8154815290600101906020018083116114e457829003601f168201915b5050505050815260200160048201805461151a90614373565b80601f016020809104026020016040519081016040528092919081815260200182805461154690614373565b80156115935780601f1061156857610100808354040283529160200191611593565b820191906000526020600020905b81548152906001019060200180831161157657829003601f168201915b505050505081526020016005820154815260200160068201548152602001600782015481526020016008820160009054906101000a900473ffffffffffffffffffffffffffffffffffffffff1673ffffffffffffffffffffffffffffffffffffffff1673ffffffffffffffffffffffffffffffffffffffff1681526020016008820160149054906101000a900460ff1615151515815250509050919050565b60008073ffffffffffffffffffffffffffffffffffffffff168273ffffffffffffffffffffffffffffffffffffffff16036116a55760006040517f89c62b6400000000000000000000000000000000000000000000000000000000815260040161169c9190613991565b60405180910390fd5b600360008373ffffffffffffffffffffffffffffffffffffffff1673ffffffffffffffffffffffffffffffffffffffff168152602001908152602001600020549050919050565b6116f4612a58565b6116fe6000612c5f565b565b6060600e60008373ffffffffffffffffffffffffffffffffffffffff1673ffffffffffffffffffffffffffffffffffffffff16815260200190815260200160002080548060200260200160405190810160405280929190818152602001828054801561178b57602002820191906000526020600020905b815481526020019060010190808311611777575b50505050509050919050565b6060600e60008373ffffffffffffffffffffffffffffffffffffffff1673ffffffffffffffffffffffffffffffffffffffff16815260200190815260200160002080548060200260200160405190810160405280929190818152602001828054801561182257602002820191906000526020600020905b81548152602001906001019080831161180e575b50505050509050919050565b6000600660009054906101000a900473ffffffffffffffffffffffffffffffffffffffff16905090565b60606001805461186790614373565b80601f016020809104026020016040519081016040528092919081815260200182805461189390614373565b80156118e05780601f106118b5576101008083540402835291602001916118e0565b820191906000526020600020905b8154815290600101906020018083116118c357829003601f168201915b5050505050905090565b600b5481565b6119026118fb612824565b8383612d25565b5050565b611911848484610cd9565b61192561191c612824565b85858585612e94565b50505050565b6000600b54905090565b60086000611941612824565b73ffffffffffffffffffffffffffffffffffffffff1673ffffffffffffffffffffffffffffffffffffffff16815260200190815260200160002060009054906101000a900460ff16806119cd575061199761182e565b73ffffffffffffffffffffffffffffffffffffffff166119b5612824565b73ffffffffffffffffffffffffffffffffffffffff16145b611a0c576040517f08c379a0000000000000000000000000000000000000000000000000000000008152600401611a0390614427565b60405180910390fd5b6000600a60008b815260200190815260200160002090508060080160149054906101000a900460ff16611a74576040517f08c379a0000000000000000000000000000000000000000000000000000000008152600401611a6b9061456b565b60405180910390fd5b868810611ab6576040517f08c379a0000000000000000000000000000000000000000000000000000000008152600401611aad90614761565b60405180910390fd5b8060070154831015611afd576040517f08c379a0000000000000000000000000000000000000000000000000000000008152600401611af4906147cd565b60405180910390fd5b88816000019081611b0e9190614999565b5087816001018190555086816002018190555085816003019081611b329190614999565b5084816004019081611b449190614999565b50838160050181905550828160060181905550818160080160006101000a81548173ffffffffffffffffffffffffffffffffffffffff021916908373ffffffffffffffffffffffffffffffffffffffff160217905550897f427852e853d0cab4937e1ad5abeffe72bfc472ded7bb7972504a6ebe4a3e11b18a8a8a888888604051611bd496959493929190614a6b565b60405180910390a250505050505050505050565b6060611bf382613045565b611c32576040517f08c379a0000000000000000000000000000000000000000000000000000000008152600401611c2990614b1f565b60405180910390fd5b6000600c60008481526020019081526020016000205490506000600a600083815260200190815260200160002090506000816003018054611c7290614373565b9050148015611c9157506000816004018054611c8d90614373565b9050145b15611caf576040518060200160405280600081525092505050611d85565b600081600201544210611cc55781600401611cca565b816003015b8054611cd590614373565b80601f0160208091040260200160405190810160405280929190818152602001828054611d0190614373565b8015611d4e5780601f10611d2357610100808354040283529160200191611d4e565b820191906000526020600020905b815481529060010190602001808311611d3157829003601f168201915b5050505050905080611d5f86613086565b604051602001611d70929190614bc7565b60405160208183030381529060405293505050505b919050565b600060086000611d98612824565b73ffffffffffffffffffffffffffffffffffffffff1673ffffffffffffffffffffffffffffffffffffffff16815260200190815260200160002060009054906101000a900460ff1680611e245750611dee61182e565b73ffffffffffffffffffffffffffffffffffffffff16611e0c612824565b73ffffffffffffffffffffffffffffffffffffffff16145b611e63576040517f08c379a0000000000000000000000000000000000000000000000000000000008152600401611e5a90614427565b60405180910390fd5b6000895111611ea7576040517f08c379a0000000000000000000000000000000000000000000000000000000008152600401611e9e90614c42565b60405180910390fd5b868810611ee9576040517f08c379a0000000000000000000000000000000000000000000000000000000008152600401611ee090614761565b60405180910390fd5b60008311611f2c576040517f08c379a0000000000000000000000000000000000000000000000000000000008152600401611f2390614cae565b60405180910390fd5b600b6000815480929190611f3f90614cfd565b9190505590506040518061014001604052808a8152602001898152602001888152602001878152602001868152602001858152602001848152602001600081526020018373ffffffffffffffffffffffffffffffffffffffff16815260200160011515815250600a60008381526020019081526020016000206000820151816000019081611fcd9190614999565b5060208201518160010155604082015181600201556060820151816003019081611ff79190614999565b50608082015181600401908161200d9190614999565b5060a0820151816005015560c0820151816006015560e082015181600701556101008201518160080160006101000a81548173ffffffffffffffffffffffffffffffffffffffff021916908373ffffffffffffffffffffffffffffffffffffffff1602179055506101208201518160080160146101000a81548160ff021916908315150217905550905050807f62cd8d021c9017add354c5a4e6be7cdc39247206945eb9e2849839b95810ff768a8a8a8888886040516120d296959493929190614a6b565b60405180910390a298975050505050505050565b6000600860006120f4612824565b73ffffffffffffffffffffffffffffffffffffffff1673ffffffffffffffffffffffffffffffffffffffff16815260200190815260200160002060009054906101000a900460ff1680612180575061214a61182e565b73ffffffffffffffffffffffffffffffffffffffff16612168612824565b73ffffffffffffffffffffffffffffffffffffffff16145b6121bf576040517f08c379a00000000000000000000000000000000000000000000000000000000081526004016121b690614427565b60405180910390fd5b6000600a600084815260200190815260200160002090508060080160149054906101000a900460ff16612227576040517f08c379a000000000000000000000000000000000000000000000000000000000815260040161221e906144ff565b60405180910390fd5b600081600001805461223890614373565b90501161227a576040517f08c379a00000000000000000000000000000000000000000000000000000000081526004016122719061456b565b60405180910390fd5b80600601548160070154106122c4576040517f08c379a00000000000000000000000000000000000000000000000000000000081526004016122bb906145d7565b60405180910390fd5b6122ce8484612b25565b91505092915050565b6122df612a58565b600073ffffffffffffffffffffffffffffffffffffffff168173ffffffffffffffffffffffffffffffffffffffff160361234e576040517f08c379a000000000000000000000000000000000000000000000000000000000815260040161234590614d91565b60405180910390fd5b600860008273ffffffffffffffffffffffffffffffffffffffff1673ffffffffffffffffffffffffffffffffffffffff16815260200190815260200160002060009054906101000a900460ff16156123db576040517f08c379a00000000000000000000000000000000000000000000000000000000081526004016123d290614dfd565b60405180910390fd5b6001600860008373ffffffffffffffffffffffffffffffffffffffff1673ffffffffffffffffffffffffffffffffffffffff16815260200190815260200160002060006101000a81548160ff0219169083151502179055508073ffffffffffffffffffffffffffffffffffffffff167f37e96fc6762bae414e69ea6e2490e63bc46f2a1335de0f6b91f49cf808829bcf60405160405180910390a250565b6000600560008473ffffffffffffffffffffffffffffffffffffffff1673ffffffffffffffffffffffffffffffffffffffff16815260200190815260200160002060008373ffffffffffffffffffffffffffffffffffffffff1673ffffffffffffffffffffffffffffffffffffffff16815260200190815260200160002060009054906101000a900460ff16905092915050565b612515612a58565b600073ffffffffffffffffffffffffffffffffffffffff168173ffffffffffffffffffffffffffffffffffffffff16036125875760006040517f1e4fbdf700000000000000000000000000000000000000000000000000000000815260040161257e9190613991565b60405180910390fd5b61259081612c5f565b50565b6008600061259f612824565b73ffffffffffffffffffffffffffffffffffffffff1673ffffffffffffffffffffffffffffffffffffffff16815260200190815260200160002060009054906101000a900460ff168061262b57506125f561182e565b73ffffffffffffffffffffffffffffffffffffffff16612613612824565b73ffffffffffffffffffffffffffffffffffffffff16145b61266a576040517f08c379a000000000000000000000000000000000000000000000000000000000815260040161266190614427565b60405180910390fd5b6000600a60008481526020019081526020016000209050600081600001805461269290614373565b9050116126d4576040517f08c379a00000000000000000000000000000000000000000000000000000000081526004016126cb9061456b565b60405180910390fd5b818160080160146101000a81548160ff021916908315150217905550505050565b60007f01ffc9a7000000000000000000000000000000000000000000000000000000007bffffffffffffffffffffffffffffffffffffffffffffffffffffffff1916827bffffffffffffffffffffffffffffffffffffffffffffffffffffffff1916149050919050565b60008061276b836131e6565b9050600073ffffffffffffffffffffffffffffffffffffffff168173ffffffffffffffffffffffffffffffffffffffff16036127de57826040517f7e2732890000000000000000000000000000000000000000000000000000000081526004016127d59190613aac565b60405180910390fd5b80915050919050565b60006004600083815260200190815260200160002060009054906101000a900473ffffffffffffffffffffffffffffffffffffffff169050919050565b600033905090565b6128398383836001613223565b505050565b60008061284a846131e6565b9050600073ffffffffffffffffffffffffffffffffffffffff168373ffffffffffffffffffffffffffffffffffffffff161461288c5761288b8184866133e8565b5b600073ffffffffffffffffffffffffffffffffffffffff168173ffffffffffffffffffffffffffffffffffffffff161461291d576128ce600085600080613223565b6001600360008373ffffffffffffffffffffffffffffffffffffffff1673ffffffffffffffffffffffffffffffffffffffff168152602001908152602001600020600082825403925050819055505b600073ffffffffffffffffffffffffffffffffffffffff168573ffffffffffffffffffffffffffffffffffffffff16146129a0576001600360008773ffffffffffffffffffffffffffffffffffffffff1673ffffffffffffffffffffffffffffffffffffffff168152602001908152602001600020600082825401925050819055505b846002600086815260200190815260200160002060006101000a81548173ffffffffffffffffffffffffffffffffffffffff021916908373ffffffffffffffffffffffffffffffffffffffff160217905550838573ffffffffffffffffffffffffffffffffffffffff168273ffffffffffffffffffffffffffffffffffffffff167fddf252ad1be2c89b69c2b068fc378daa952ba7f163c4a11628f55a4df523b3ef60405160405180910390a4809150509392505050565b612a60612824565b73ffffffffffffffffffffffffffffffffffffffff16612a7e61182e565b73ffffffffffffffffffffffffffffffffffffffff1614612add57612aa1612824565b6040517f118cdaa7000000000000000000000000000000000000000000000000000000008152600401612ad49190613991565b60405180910390fd5b565b600260075403612b1b576040517f3ee5aeb500000000000000000000000000000000000000000000000000000000815260040160405180910390fd5b6002600781905550565b600080600a600084815260200190815260200160002090506001816007016000828254612b529190614e1d565b92505081905550600d6000815480929190612b6c90614cfd565b91905055915082600c600084815260200190815260200160002081905550612b9484836134ac565b600e60008573ffffffffffffffffffffffffffffffffffffffff1673ffffffffffffffffffffffffffffffffffffffff1681526020019081526020016000208290806001815401808255809150506001900390600052602060002001600090919091909150558373ffffffffffffffffffffffffffffffffffffffff1683837f4fe0f5bb11eb6ab81c428fb83261719e5b22f84b3e1942cd491c3777504bb8518460050154604051612c469190613aac565b60405180910390a45092915050565b6001600781905550565b6000600660009054906101000a900473ffffffffffffffffffffffffffffffffffffffff16905081600660006101000a81548173ffffffffffffffffffffffffffffffffffffffff021916908373ffffffffffffffffffffffffffffffffffffffff1602179055508173ffffffffffffffffffffffffffffffffffffffff168173ffffffffffffffffffffffffffffffffffffffff167f8be0079c531659141344cd1fd0a4f28419497f9722a3daafe3b4186f6b6457e060405160405180910390a35050565b600073ffffffffffffffffffffffffffffffffffffffff168273ffffffffffffffffffffffffffffffffffffffff1603612d9657816040517f5b08ba18000000000000000000000000000000000000000000000000000000008152600401612d8d9190613991565b60405180910390fd5b80600560008573ffffffffffffffffffffffffffffffffffffffff1673ffffffffffffffffffffffffffffffffffffffff16815260200190815260200160002060008473ffffffffffffffffffffffffffffffffffffffff1673ffffffffffffffffffffffffffffffffffffffff16815260200190815260200160002060006101000a81548160ff0219169083151502179055508173ffffffffffffffffffffffffffffffffffffffff168373ffffffffffffffffffffffffffffffffffffffff167f17307eab39ab6107e8899845ad3d59bd9653f200f220920489ca2b5937696c3183604051612e8791906137c7565b60405180910390a3505050565b60008373ffffffffffffffffffffffffffffffffffffffff163b111561303e578273ffffffffffffffffffffffffffffffffffffffff1663150b7a02868685856040518563ffffffff1660e01b8152600401612ef39493929190614ea6565b6020604051808303816000875af1925050508015612f2f57506040513d601f19601f82011682018060405250810190612f2c9190614f07565b60015b612fb3573d8060008114612f5f576040519150601f19603f3d011682016040523d82523d6000602084013e612f64565b606091505b506000815103612fab57836040517f64a0ae92000000000000000000000000000000000000000000000000000000008152600401612fa29190613991565b60405180910390fd5b805160208201fd5b63150b7a0260e01b7bffffffffffffffffffffffffffffffffffffffffffffffffffffffff1916817bffffffffffffffffffffffffffffffffffffffffffffffffffffffff19161461303c57836040517f64a0ae920000000000000000000000000000000000000000000000000000000081526004016130339190613991565b60405180910390fd5b505b5050505050565b60008073ffffffffffffffffffffffffffffffffffffffff16613067836131e6565b73ffffffffffffffffffffffffffffffffffffffff1614159050919050565b6060600082036130cd576040518060400160405280600181526020017f300000000000000000000000000000000000000000000000000000000000000081525090506131e1565b600082905060005b600082146130ff5780806130e890614cfd565b915050600a826130f89190614f63565b91506130d5565b60008167ffffffffffffffff81111561311b5761311a613e4d565b5b6040519080825280601f01601f19166020018201604052801561314d5781602001600182028036833780820191505090505b5090505b600085146131da576001826131669190614f94565b9150600a856131759190614fc8565b60306131819190614e1d565b60f81b81838151811061319757613196614ff9565b5b60200101907effffffffffffffffffffffffffffffffffffffffffffffffffffffffffffff1916908160001a905350600a856131d39190614f63565b9450613151565b8093505050505b919050565b60006002600083815260200190815260200160002060009054906101000a900473ffffffffffffffffffffffffffffffffffffffff169050919050565b808061325c5750600073ffffffffffffffffffffffffffffffffffffffff168273ffffffffffffffffffffffffffffffffffffffff1614155b1561339057600061326c8461275f565b9050600073ffffffffffffffffffffffffffffffffffffffff168373ffffffffffffffffffffffffffffffffffffffff16141580156132d757508273ffffffffffffffffffffffffffffffffffffffff168173ffffffffffffffffffffffffffffffffffffffff1614155b80156132ea57506132e88184612479565b155b1561332c57826040517fa9fbf51f0000000000000000000000000000000000000000000000000000000081526004016133239190613991565b60405180910390fd5b811561338e57838573ffffffffffffffffffffffffffffffffffffffff168273ffffffffffffffffffffffffffffffffffffffff167f8c5be1e5ebec7d5bd14f71427d1e84f3dd0314c0f7b2291e5b200ac8c7c3b92560405160405180910390a45b505b836004600085815260200190815260200160002060006101000a81548173ffffffffffffffffffffffffffffffffffffffff021916908373ffffffffffffffffffffffffffffffffffffffff16021790555050505050565b6133f38383836134ca565b6134a757600073ffffffffffffffffffffffffffffffffffffffff168373ffffffffffffffffffffffffffffffffffffffff160361346857806040517f7e27328900000000000000000000000000000000000000000000000000000000815260040161345f9190613aac565b60405180910390fd5b81816040517f177e802f00000000000000000000000000000000000000000000000000000000815260040161349e929190615028565b60405180910390fd5b505050565b6134c682826040518060200160405280600081525061358b565b5050565b60008073ffffffffffffffffffffffffffffffffffffffff168373ffffffffffffffffffffffffffffffffffffffff161415801561358257508273ffffffffffffffffffffffffffffffffffffffff168473ffffffffffffffffffffffffffffffffffffffff16148061354357506135428484612479565b5b8061358157508273ffffffffffffffffffffffffffffffffffffffff16613569836127e7565b73ffffffffffffffffffffffffffffffffffffffff16145b5b90509392505050565b61359583836135af565b6135aa6135a0612824565b6000858585612e94565b505050565b600073ffffffffffffffffffffffffffffffffffffffff168273ffffffffffffffffffffffffffffffffffffffff16036136215760006040517f64a0ae920000000000000000000000000000000000000000000000000000000081526004016136189190613991565b60405180910390fd5b600061362f8383600061283e565b9050600073ffffffffffffffffffffffffffffffffffffffff168173ffffffffffffffffffffffffffffffffffffffff16146136a35760006040517f73c6ac6e00000000000000000000000000000000000000000000000000000000815260040161369a9190613991565b60405180910390fd5b505050565b6040518061014001604052806060815260200160008152602001600081526020016060815260200160608152602001600081526020016000815260200160008152602001600073ffffffffffffffffffffffffffffffffffffffff1681526020016000151581525090565b6000604051905090565b600080fd5b600080fd5b60007fffffffff0000000000000000000000000000000000000000000000000000000082169050919050565b61375c81613727565b811461376757600080fd5b50565b60008135905061377981613753565b92915050565b6000602082840312156137955761379461371d565b5b60006137a38482850161376a565b91505092915050565b60008115159050919050565b6137c1816137ac565b82525050565b60006020820190506137dc60008301846137b8565b92915050565b600073ffffffffffffffffffffffffffffffffffffffff82169050919050565b600061380d826137e2565b9050919050565b61381d81613802565b811461382857600080fd5b50565b60008135905061383a81613814565b92915050565b6000602082840312156138565761385561371d565b5b60006138648482850161382b565b91505092915050565b600081519050919050565b600082825260208201905092915050565b60005b838110156138a757808201518184015260208101905061388c565b60008484015250505050565b6000601f19601f8301169050919050565b60006138cf8261386d565b6138d98185613878565b93506138e9818560208601613889565b6138f2816138b3565b840191505092915050565b6000602082019050818103600083015261391781846138c4565b905092915050565b6000819050919050565b6139328161391f565b811461393d57600080fd5b50565b60008135905061394f81613929565b92915050565b60006020828403121561396b5761396a61371d565b5b600061397984828501613940565b91505092915050565b61398b81613802565b82525050565b60006020820190506139a66000830184613982565b92915050565b600080604083850312156139c3576139c261371d565b5b60006139d18582860161382b565b92505060206139e285828601613940565b9150509250929050565b6139f58161391f565b82525050565b6000610140820190508181036000830152613a16818d6138c4565b9050613a25602083018c6139ec565b613a32604083018b6139ec565b8181036060830152613a44818a6138c4565b90508181036080830152613a5881896138c4565b9050613a6760a08301886139ec565b613a7460c08301876139ec565b613a8160e08301866139ec565b613a8f610100830185613982565b613a9d6101208301846137b8565b9b9a5050505050505050505050565b6000602082019050613ac160008301846139ec565b92915050565b600080600060608486031215613ae057613adf61371d565b5b6000613aee8682870161382b565b9350506020613aff8682870161382b565b9250506040613b1086828701613940565b9150509250925092565b6000613b25826137e2565b9050919050565b613b3581613b1a565b8114613b4057600080fd5b50565b600081359050613b5281613b2c565b92915050565b600060208284031215613b6e57613b6d61371d565b5b6000613b7c84828501613b43565b91505092915050565b600082825260208201905092915050565b6000613ba18261386d565b613bab8185613b85565b9350613bbb818560208601613889565b613bc4816138b3565b840191505092915050565b613bd88161391f565b82525050565b613be781613802565b82525050565b613bf6816137ac565b82525050565b6000610140830160008301518482036000860152613c1a8282613b96565b9150506020830151613c2f6020860182613bcf565b506040830151613c426040860182613bcf565b5060608301518482036060860152613c5a8282613b96565b91505060808301518482036080860152613c748282613b96565b91505060a0830151613c8960a0860182613bcf565b5060c0830151613c9c60c0860182613bcf565b5060e0830151613caf60e0860182613bcf565b50610100830151613cc4610100860182613bde565b50610120830151613cd9610120860182613bed565b508091505092915050565b60006020820190508181036000830152613cfe8184613bfc565b905092915050565b600081519050919050565b600082825260208201905092915050565b6000819050602082019050919050565b6000613d3e8383613bcf565b60208301905092915050565b6000602082019050919050565b6000613d6282613d06565b613d6c8185613d11565b9350613d7783613d22565b8060005b83811015613da8578151613d8f8882613d32565b9750613d9a83613d4a565b925050600181019050613d7b565b5085935050505092915050565b60006020820190508181036000830152613dcf8184613d57565b905092915050565b613de0816137ac565b8114613deb57600080fd5b50565b600081359050613dfd81613dd7565b92915050565b60008060408385031215613e1a57613e1961371d565b5b6000613e288582860161382b565b9250506020613e3985828601613dee565b9150509250929050565b600080fd5b600080fd5b7f4e487b7100000000000000000000000000000000000000000000000000000000600052604160045260246000fd5b613e85826138b3565b810181811067ffffffffffffffff82111715613ea457613ea3613e4d565b5b80604052505050565b6000613eb7613713565b9050613ec38282613e7c565b919050565b600067ffffffffffffffff821115613ee357613ee2613e4d565b5b613eec826138b3565b9050602081019050919050565b82818337600083830152505050565b6000613f1b613f1684613ec8565b613ead565b905082815260208101848484011115613f3757613f36613e48565b5b613f42848285613ef9565b509392505050565b600082601f830112613f5f57613f5e613e43565b5b8135613f6f848260208601613f08565b91505092915050565b60008060008060808587031215613f9257613f9161371d565b5b6000613fa08782880161382b565b9450506020613fb18782880161382b565b9350506040613fc287828801613940565b925050606085013567ffffffffffffffff811115613fe357613fe2613722565b5b613fef87828801613f4a565b91505092959194509250565b600067ffffffffffffffff82111561401657614015613e4d565b5b61401f826138b3565b9050602081019050919050565b600061403f61403a84613ffb565b613ead565b90508281526020810184848401111561405b5761405a613e48565b5b614066848285613ef9565b509392505050565b600082601f83011261408357614082613e43565b5b813561409384826020860161402c565b91505092915050565b60008060008060008060008060006101208a8c0312156140bf576140be61371d565b5b60006140cd8c828d01613940565b99505060208a013567ffffffffffffffff8111156140ee576140ed613722565b5b6140fa8c828d0161406e565b985050604061410b8c828d01613940565b975050606061411c8c828d01613940565b96505060808a013567ffffffffffffffff81111561413d5761413c613722565b5b6141498c828d0161406e565b95505060a08a013567ffffffffffffffff81111561416a57614169613722565b5b6141768c828d0161406e565b94505060c06141878c828d01613940565b93505060e06141988c828d01613940565b9250506101006141aa8c828d0161382b565b9150509295985092959850929598565b600080600080600080600080610100898b0312156141db576141da61371d565b5b600089013567ffffffffffffffff8111156141f9576141f8613722565b5b6142058b828c0161406e565b98505060206142168b828c01613940565b97505060406142278b828c01613940565b965050606089013567ffffffffffffffff81111561424857614247613722565b5b6142548b828c0161406e565b955050608089013567ffffffffffffffff81111561427557614274613722565b5b6142818b828c0161406e565b94505060a06142928b828c01613940565b93505060c06142a38b828c01613940565b92505060e06142b48b828c0161382b565b9150509295985092959890939650565b600080604083850312156142db576142da61371d565b5b60006142e98582860161382b565b92505060206142fa8582860161382b565b9150509250929050565b6000806040838503121561431b5761431a61371d565b5b600061432985828601613940565b925050602061433a85828601613dee565b9150509250929050565b7f4e487b7100000000000000000000000000000000000000000000000000000000600052602260045260246000fd5b6000600282049050600182168061438b57607f821691505b60208210810361439e5761439d614344565b5b50919050565b60006060820190506143b96000830186613982565b6143c660208301856139ec565b6143d36040830184613982565b949350505050565b7f4e6f74206f7267616e697a657200000000000000000000000000000000000000600082015250565b6000614411600d83613878565b915061441c826143db565b602082019050919050565b6000602082019050818103600083015261444081614404565b9050919050565b7f7a65726f20616464720000000000000000000000000000000000000000000000600082015250565b600061447d600983613878565b915061448882614447565b602082019050919050565b600060208201905081810360008301526144ac81614470565b9050919050565b7f4576656e74206e6f742061637469766500000000000000000000000000000000600082015250565b60006144e9601083613878565b91506144f4826144b3565b602082019050919050565b60006020820190508181036000830152614518816144dc565b9050919050565b7f496e76616c6964206576656e7400000000000000000000000000000000000000600082015250565b6000614555600d83613878565b91506145608261451f565b602082019050919050565b6000602082019050818103600083015261458481614548565b9050919050565b7f536f6c64206f7574000000000000000000000000000000000000000000000000600082015250565b60006145c1600883613878565b91506145cc8261458b565b602082019050919050565b600060208201905081810360008301526145f0816145b4565b9050919050565b7f5072696365206d69736d61746368000000000000000000000000000000000000600082015250565b600061462d600e83613878565b9150614638826145f7565b602082019050919050565b6000602082019050818103600083015261465c81614620565b9050919050565b600081905092915050565b50565b600061467e600083614663565b91506146898261466e565b600082019050919050565b600061469f82614671565b9150819050919050565b7f466565207472616e73666572206661696c000000000000000000000000000000600082015250565b60006146df601183613878565b91506146ea826146a9565b602082019050919050565b6000602082019050818103600083015261470e816146d2565b9050919050565b7f7374617274203c20656e64000000000000000000000000000000000000000000600082015250565b600061474b600b83613878565b915061475682614715565b602082019050919050565b6000602082019050818103600083015261477a8161473e565b9050919050565b7f6d6178537570706c79203c206d696e7465640000000000000000000000000000600082015250565b60006147b7601283613878565b91506147c282614781565b602082019050919050565b600060208201905081810360008301526147e6816147aa565b9050919050565b60008190508160005260206000209050919050565b60006020601f8301049050919050565b600082821b905092915050565b60006008830261484f7fffffffffffffffffffffffffffffffffffffffffffffffffffffffffffffffff82614812565b6148598683614812565b95508019841693508086168417925050509392505050565b6000819050919050565b600061489661489161488c8461391f565b614871565b61391f565b9050919050565b6000819050919050565b6148b08361487b565b6148c46148bc8261489d565b84845461481f565b825550505050565b600090565b6148d96148cc565b6148e48184846148a7565b505050565b5b81811015614908576148fd6000826148d1565b6001810190506148ea565b5050565b601f82111561494d5761491e816147ed565b61492784614802565b81016020851015614936578190505b61494a61494285614802565b8301826148e9565b50505b505050565b600082821c905092915050565b600061497060001984600802614952565b1980831691505092915050565b6000614989838361495f565b9150826002028217905092915050565b6149a28261386d565b67ffffffffffffffff8111156149bb576149ba613e4d565b5b6149c58254614373565b6149d082828561490c565b600060209050601f831160018114614a0357600084156149f1578287015190505b6149fb858261497d565b865550614a63565b601f198416614a11866147ed565b60005b82811015614a3957848901518255600182019150602085019450602081019050614a14565b86831015614a565784890151614a52601f89168261495f565b8355505b6001600288020188555050505b505050505050565b600060c0820190508181036000830152614a8581896138c4565b9050614a9460208301886139ec565b614aa160408301876139ec565b614aae60608301866139ec565b614abb60808301856139ec565b614ac860a0830184613982565b979650505050505050565b7f4e6f6e6578697374656e7420746f6b656e000000000000000000000000000000600082015250565b6000614b09601183613878565b9150614b1482614ad3565b602082019050919050565b60006020820190508181036000830152614b3881614afc565b9050919050565b600081905092915050565b6000614b558261386d565b614b5f8185614b3f565b9350614b6f818560208601613889565b80840191505092915050565b7f2e6a736f6e000000000000000000000000000000000000000000000000000000600082015250565b6000614bb1600583614b3f565b9150614bbc82614b7b565b600582019050919050565b6000614bd38285614b4a565b9150614bdf8284614b4a565b9150614bea82614ba4565b91508190509392505050565b7f4e616d6520656d70747900000000000000000000000000000000000000000000600082015250565b6000614c2c600a83613878565b9150614c3782614bf6565b602082019050919050565b60006020820190508181036000830152614c5b81614c1f565b9050919050565b7f6d6178537570706c792030000000000000000000000000000000000000000000600082015250565b6000614c98600b83613878565b9150614ca382614c62565b602082019050919050565b60006020820190508181036000830152614cc781614c8b565b9050919050565b7f4e487b7100000000000000000000000000000000000000000000000000000000600052601160045260246000fd5b6000614d088261391f565b91507fffffffffffffffffffffffffffffffffffffffffffffffffffffffffffffffff8203614d3a57614d39614cce565b5b600182019050919050565b7f5a65726f20616464720000000000000000000000000000000000000000000000600082015250565b6000614d7b600983613878565b9150614d8682614d45565b602082019050919050565b60006020820190508181036000830152614daa81614d6e565b9050919050565b7f416c7265616479206f7267616e697a6572000000000000000000000000000000600082015250565b6000614de7601183613878565b9150614df282614db1565b602082019050919050565b60006020820190508181036000830152614e1681614dda565b9050919050565b6000614e288261391f565b9150614e338361391f565b9250828201905080821115614e4b57614e4a614cce565b5b92915050565b600081519050919050565b600082825260208201905092915050565b6000614e7882614e51565b614e828185614e5c565b9350614e92818560208601613889565b614e9b816138b3565b840191505092915050565b6000608082019050614ebb6000830187613982565b614ec86020830186613982565b614ed560408301856139ec565b8181036060830152614ee78184614e6d565b905095945050505050565b600081519050614f0181613753565b92915050565b600060208284031215614f1d57614f1c61371d565b5b6000614f2b84828501614ef2565b91505092915050565b7f4e487b7100000000000000000000000000000000000000000000000000000000600052601260045260246000fd5b6000614f6e8261391f565b9150614f798361391f565b925082614f8957614f88614f34565b5b828204905092915050565b6000614f9f8261391f565b9150614faa8361391f565b9250828203905081811115614fc257614fc1614cce565b5b92915050565b6000614fd38261391f565b9150614fde8361391f565b925082614fee57614fed614f34565b5b828206905092915050565b7f4e487b7100000000000000000000000000000000000000000000000000000000600052603260045260246000fd5b600060408201905061503d6000830185613982565b61504a60208301846139ec565b939250505056fea26469706673582212205c5fe1e4789a808319d47fe3e2a8b92ef5a45f23b61fbbd85f05f92e89b478b864736f6c63430008140033",
  "linkReferences": {},
  "deployedLinkReferences": {}
}